:100000000C94B20D0C94E90D0C94CE0D0C94CE0D05
:100010000C94CE0D0C94CE0D0C94CE0D0C94CE0DF4
:100020000C94CE0D0C94CE0D0C94CE0D0C94CE0DE4
:100030000C94CE0D0C943C0F0C94CE0D0C94CE0D64
:100040000C94CE0D0C94CE0D0C94CE0D0C94CE0DC4
:100050000C94CE0D0C94CE0D0C94CE0D0C94CE0DB4
:100060000C94CE0D0C94CE0D120100020900010873
:10007000AAAACCCC0001000000010902190001016C
:1000800000E03209040000010900000007058103B7
:1000900001000C092906A900326400FF12010002C8
:1000A00000000008AAAA555500000000000409023B
:1000B000000F010000800902120001000080FA090F
:1000C00004000000FE010200000000000000FACE63
:1000D000B003AABBCCDD3863F00038A01000388034
:1000E00000017884F8066484007038A5FFF87CC3AA
:1000F000282A7CC4292A282500004082FFF0388461
:1001000000807C8903A64E800420000000000000CF
:1001100000000000000000000000000000000000DF
:1001200000000000000000000000000000000000CF
:100130000000000000007C0802A6F821FF61FB61BE
:100140000078FB810080FBA10088FBC10090FBE1EF
:100150000098F80100B03BE000017BFFF8067FE368
:10016000FB786463007F6063F0007FE4FB78648465
:100170000070608401CC38A0086C4B97BF597FE3B6
:10018000FB786463007F6063F0284B9D22057FE36A
:10019000FB787FE4FB786484002E6084B12864637C
:1001A000007F6063F018F86401207FE5FB7864A5A8
:1001B000007060A5012480650000280300004182D2
:1001C0000018808500047C63FA149083000038A531
:1001D00000084BFFFFE44800091C000490E0E8829F
:1001E0000F08000490E4E87C0020000490E8F86424
:1001F00000000004F0A8487AFF61002AAFC8485503
:1002000040440004ED18388000000004ED1C908389
:1002100000000004ED204E800020003BA89001006B
:100220000000000505D0487AF0F4000234D0487D83
:10023000C1C5000E83D4487172C100017CBCE86363
:10024000000000017CC04E80002000017CC8F883C3
:10025000000000017CCC4E80002000017CD4487E50
:10026000780800050B3C3860000100050B404E800B
:10027000002000000000000000000000000000005E
:100280000000386000014E80002048000344480010
:1002900001D8386000004E80002080000000007F00
:1002A000F158800000000033E72080000000007F4C
:1002B000F7F280000000007FF04880000000007F1F
:1002C000F05880000000007FF06880000000007F90
:1002D000F088800000000033E72080000000007FED
:1002E000F0D0800000000033E72080000000007F95
:1002F000F12C800000000033E72080000000007F28
:10030000F134800000000033E720F821FF817C08F1
:1003100002A6F80100903880000038A000014B8D43
:1003200038FD80A30008386000003C80AAAA6084E1
:10033000C0DE7C042840418200083860FFFF7C63F7
:1003400007B4E80100907C0803A6382100804E80A5
:100350000020F821FF817C0802A6F8010090388077
:1003600000004B8D38E53881007038A00000F8A4FB
:10037000000038C021AAB0C4000038C00000B0C4DA
:10038000000638C0000178C6F80664C6007F60C663
:10039000F07838E000004B8D381938600000E80133
:1003A00000907C0803A6382100804E800020386031
:1003B00000004E8000202C0300004082001C3860AA
:1003C00000017863F8066463007F6063F7A43880F7
:1003D0000001908300104E800020F821FF317C083E
:1003E00002A6F80100E0FBE100C8388100704B9BD9
:1003F00049D13BE000017BFFF80667FF007F63FF08
:10040000F7A4E87F00002C2300004182000C388014
:1004100000274B86333938800027386008004B8628
:100420002EEDF87F0000E88100704B84E149E8611F
:100430000070388000274B863315E87F00004B841E
:10044000E15DE89F00007C641A14F87F00083860C2
:100450000000EBE100C8E80100E0382100D07C0892
:1004600003A64E800020F821FF617C0802A6FB81D4
:100470000080FBA10088FBE10098FB410070FB615C
:100480000078F80100B07C9C23787C7D1B783BE0F1
:1004900000017BFFF80667FB007F637BF7BCEB5B2B
:1004A0000000283A0000418200507FA3EB78E89AD0
:1004B0000000282400004182004080BA00104B84D4
:1004C000E109282300004082002880BA00107C9DAA
:1004D0002A14E87A00087C7D1B7880BA00147C63BB
:1004E0002A144B84E0917F84E378480000DC3B5A77
:1004F00000184BFFFFB867E4007F6084F7FE38A068
:1005000000094B84E0C5282300004082006C67FA94
:10051000007F635AF7F6EB7A0000283B0000408228
:10052000002438800027386008004B862DE1F87AD7
:1005300000007C7B1B7867E4007F6084F8084B84B4
:10054000E035387B000B67E5007F60A5F7A4E88500
:100550000000282400004182000C7C9B2378E86581
:100560000008389D00094B84E00D7F7DDB787F8497
:10057000E378418200547FA3EB787FE4FB786484C6
:10058000007F6084F7E838A000094B84E03D282311
:1005900000004082003467FF007F63FFF7A4807F84
:1005A00000102803000041820020E87F000028237B
:1005B000000041820014E87F0008389D00094B8448
:1005C000DFB5EBBF00007FA3EB784BAABCA87C088B
:1005D00002A6F821FE61FB610078FB810080FBA18F
:1005E0000088FBC10090FBE10098F80101B07C7D20
:1005F0001B787C9E23783BE000017BFFF806EB82B2
:100600009600EB9C0068EB9C0018EB620F08E93D3C
:10061000001881290030792984022C0900294082A0
:100620000058E89C00107885C1E478A546202C0588
:1006300000FF4182001860840003F89C00103860BD
:100640000006907E00004800001460840002F89CC0
:1006500000103860002C907E000080BC0004E89CF4
:100660000008E87B00007D232A14F93B00004B873B
:10067000CC31480000C47FA3EB787FC4F3784B846F
:10068000F4217FFDFB7867BD007F63BDF7B8807DF7
:10069000000080BC00047C632A14907D0000E89C6C
:1006A00000107885C1E478A546202C0500FF408223
:1006B0000088E87B00003880000038C000007CE340
:1006C000221480A700007CC62A78388400042824DD
:1006D00004004082FFEC807D000078C607C67CC61F
:1006E0001B7838600000907D00007FE7FB7864E7AE
:1006F000007F60E7F6ECE8670000282300004182F5
:10070000003838E700107C2330404082FFECE8A737
:10071000FFF8E8FB0000806500002803000041822C
:100720000018808500047C633A149083000038A58B
:1007300000084BFFFFE438600000EB610078EB81BC
:100740000080EBA10088EBC10090EBE10098E8018C
:1007500001B0382101A07C0803A64E8000207C084F
:1007600002A6F821FF61FB610078FB810080FBA1FC
:100770000088FBC10090FBE10098F80100B03BE06D
:1007800000017BFFF80667FB007F637BF7C4839B58
:100790000000281C00004182006C281C00084080DA
:1007A00000B828230001408200B0282400004182C4
:1007B000000C3B9C0001939B0000EB9B00087C24F9
:1007C000E040408200943B800001939B000067E47E
:1007D000002E6084B128EB9B0010FB840030EB9B63
:1007E0000018FB84003867FC007F639CF018FB84D2
:1007F00001203B800000939B00003860010048000E
:100800000034706300FF2823000A4080005867FB13
:10081000007F637BF814787C1F247F7BE214EBBBA2
:1008200000007C8323787CA42B787CC53378480037
:10083000003DEB610078EB810080EBA10088EBC10B
:100840000090EBE10098E80100B0382100A07C089E
:1008500003A64E8000203C608001606300034BFFD4
:10086000FFD43860FFFF4BFFFFCC7FA903A64E806B
:10087000042067FB007F637BF7C4F87B00083B80A4
:100880000001939B000067E4002E6084B128E864B7
:100890000128EB840030F8640030FB9B0010EB84EF
:1008A0000038F8640038FB9B0018F86401203860B9
:1008B00000004E800020386001004E8000204B87F1
:1008C000C9E04B84DB047C6903A67C8323787CA489
:1008D0002B784E8004204B862A344B862E7038604D
:1008E0000000396000FF4400002267FB007F637B4B
:1008F000F7E4907B0000386000004E8000207C64AC
:100900001B7867FB007F637BF7BCE87B0000F89BEC
:1009100000004E800020392000017929F806652961
:10092000007F6129F7E4800900002800000141826E
:10093000F954280000024182F95CE92296887C087B
:1009400002A64B850F18392000017929F806652980
:10095000007F6129F7E48009000028000000408240
:10096000F924E92296887C0802A64B850EF0A05552
:100970006F3D002CB8FD80000000007FF7348C0A2A
:10098000948C000D99B180000000007FF75CA2BC40
:100990001A5600052ADC80000000007FF7806B708B
:1009A00028020002001780000000007FF7500000BE
:1009B0000000000000000030535438600082005FE7
:1009C0003FC038600001005F3FC44E80002000003F
:1009D00000000002ED0C3BA000010000000000221E
:1009E000B8885F746F6F0022B88C6C322E7800224A
:1009F000B8906D6C23720022B8946F6F7400000081
:100A00000000000D68B85F746F6F000D68BC6C3239
:100A10002E78000D68C06D6C2372000D68C46F6F76
:100A20007400000000000000000000000000000052
:100A300000000000000000000000000000000000B6
:100A400000000000000000000000000000000000A6
:100A50000000000000000000000000000000000096
:100A6000000000000000000000022F6465765F6255
:100A7000647664006D6F64000000000000000000F8
:100A80002F6170705F686F6D65002F6465765F75AC
:100A900073623030300080000000007FF5F080008D
:100AA0000000007FF63480000000007FF63C8000EC
:100AB0000000007FF64080000000007FF6448000C8
:100AC0000000007FF65480000000007FF658800090
:100AD0000000007FF65C80000000007FF668800068
:100AE0000000007FF67C80000000007FF6340000EC
:100AF0000000EB610078EB810080EBA10088EBC186
:100B00000090EBE10098E80100B0382100A07C08DB
:100B100003A6386000017863F806646300703880CB
:100B2000000038A00A7C4B94C6D46000000060002E
:100B300000000000000000000000000000000000B5
:100B400000000000000000000000000000000000A5
:100B50000000000000000000000000000000000095
:100B60000000000000000000000000000000000085
:100FB0000000000000001201000200000008AAAAC0
:100FC000BBBB000000000001090216000101008007
:100FD000010904000000FE0102000421B42F1201E7
:100FE000000200000008AAAA5555000000000002F7
:100FF00009024D0A01010080010904000000FE0100
:1010000002000904000000FE0102000904000000C3
:10101000FE0102000904000000FE010200090400B4
:101020000000FE0102000904000000FE01020009A8
:10103000000904000000FE0102000904000000FE97
:101040000102000904000000FE0102000904000082
:1010500000FE0102000904000000FE010200090474
:10106000000000FE0102000904000000FE01020071
:1010700002000904000000FE010200090400000053
:10108000FE0102000904000000FE01020009040044
:101090000000FE0102000904000000FE0102000938
:1010A00004000000FE0102000904000000FE01022D
:1010B0000102000904000000FE0102000904000012
:1010C00000FE0102000904000000FE010200090404
:1010D000000000FE0102000904000000FE01020001
:1010E0000904000000FE0102000904000000FE01E6
:1010F000FE0102000904000000FE010200090400D4
:101100000000FE0102000904000000FE01020009C7
:1011100004000000FE0102000904000000FE0102BC
:10112000000904000000FE0102000904000000FEA6
:1011300000FE0102000904000000FE010200090493
:10114000000000FE0102000904000000FE01020090
:101150000904000000FE0102000904000000FE0175
:1011600002000904000000FE010200090400000062
:101170000000FE0102000904000000FE0102000957
:1011800004000000FE0102000904000000FE01024C
:10119000000904000000FE0102000904000000FE36
:1011A0000102000904000000FE0102000904000021
:1011B000000000FE0102000904000000FE01020020
:1011C0000904000000FE0102000904000000FE0105
:1011D00002000904000000FE0102000904000000F2
:1011E000FE0102000904000000FE010200090400E3
:1011F00004000000FE0102000904000000FE0102DC
:10120000000904000000FE0102000904000000FEC5
:101210000102000904000000FE01020009040000B0
:1012200000FE0102000904000000FE0102000904A2
:101230000904000000FE0102000904000000FE0194
:1012400002000904000000FE010200090400000081
:10125000FE0102000904000000FE01020009040072
:101260000000FE0102000904000000FE0102000966
:10127000000904000000FE0102000904000000FE55
:101280000102000904000000FE0102000904000040
:1012900000FE0102000904000000FE010200090432
:1012A000000000FE0102000904000000FE0102002F
:1012B00002000904000000FE010200090400000011
:1012C000FE0102000904000000FE01020009040002
:1012D0000000FE0102000904000000FE01020009F6
:1012E00004000000FE0102000904000000FE0102EB
:1012F0000102000904000000FE01020009040000D0
:1013000000FE0102000904000000FE0102000904C1
:10131000000000FE0102000904000000FE010200BE
:101320000904000000FE0102000904000000FE01A3
:10133000FE0102000904000000FE01020009040091
:101340000000FE0102000904000000FE0102000985
:1013500004000000FE0102000904000000FE01027A
:10136000000904000000FE0102000904000000FE64
:1013700000FE0102000904000000FE010200090451
:10138000000000FE0102000904000000FE0102004E
:101390000904000000FE0102000904000000FE0133
:1013A00002000904000000FE010200090400000020
:1013B0000000FE0102000904000000FE0102000915
:1013C00004000000FE0102000904000000FE01020A
:1013D000000904000000FE0102000904000000FEF4
:1013E0000102000904000000FE01020009040000DF
:1013F000000000FE0102000904000000FE010200DE
:101400000904000000FE0102000904000000FE01C2
:1014100002000904000000FE0102000904000000AF
:10142000FE0102000904000000FE010200090400A0
:1014300004000000FE0102000904000000FE010299
:10144000000904000000FE0102000904000000FE83
:101450000102000904000000FE010200090400006E
:1014600000FE0102000904000000FE010200090460
:101470000904000000FE0102000904000000FE0152
:1014800002000904000000FE01020009040000003F
:10149000FE0102000904000000FE01020009040030
:1014A0000000FE0102000904000000FE0102000924
:1014B000000904000000FE0102000904000000FE13
:1014C0000102000904000000FE01020009040000FE
:1014D00000FE0102000904000000FE0102000904F0
:1014E000000000FE0102000904000000FE010200ED
:1014F00002000904000000FE0102000904000000CF
:10150000FE0102000904000000FE010200090400BF
:101510000000FE0102000904000000FE01020009B3
:1015200004000000FE0102000904000000FE0102A8
:101530000102000904000000FE010200090400008D
:1015400000FE0102000904000000FE01020009047F
:10155000000000FE0102000904000000FE0102007C
:101560000904000000FE0102000904000000FE0161
:10157000FE0102000904000000FE0102000904004F
:101580000000FE0102000904000000FE0102000943
:1015900004000000FE0102000904000000FE010238
:1015A000000904000000FE0102000904000000FE22
:1015B00000FE0102000904000000FE01020009040F
:1015C000000000FE0102000904000000FE0102000C
:1015D0000904000000FE0102000904000000FE01F1
:1015E00002000904000000FE0102000904000000DE
:1015F0000000FE0102000904000000FE01020009D3
:1016000004000000FE0102000904000000FE0102C7
:10161000000904000000FE0102000904000000FEB1
:101620000102000904000000FE010200090400009C
:10163000000000FE0102000904000000FE0102009B
:101640000904000000FE0102000904000000FE0180
:1016500002000904000000FE01020009040000006D
:10166000FE0102000904000000FE0102000904005E
:1016700004000000FE0102000904000000FE010257
:10168000000904000000FE0102000904000000FE41
:101690000102000904000000FE010200090400002C
:1016A00000FE0102000904000000FE01020009041E
:1016B0000904000000FE0102000904000000FE0110
:1016C00002000904000000FE0102000904000000FD
:1016D000FE0102000904000000FE010200090400EE
:1016E0000000FE0102000904000000FE01020009E2
:1016F000000904000000FE0102000904000000FED1
:101700000102000904000000FE01020009040000BB
:1017100000FE0102000904000000FE0102000904AD
:10172000000000FE0102000904000000FE010200AA
:1017300002000904000000FE01020009040000008C
:10174000FE0102000904000000FE0102000904007D
:101750000000FE0102000904000000FE0102000971
:1017600004000000FE0102000904000000FE010266
:101770000102000904000000FE010200090400004B
:1017800000FE0102000904000000FE01020009043D
:10179000000000FE0102000904000000FE0102003A
:1017A0000904000000FE0102000904000000FE011F
:1017B000FE0102000904000000FE0102000904000D
:1017C0000000FE0102000904000000FE0102000901
:1017D00004000000FE0102000904000000FE0102F6
:1017E000000904000000FE0102000904000000FEE0
:1017F00000FE0102000904000000FE0102000904CD
:10180000000000FE0102000904000000FE010200C9
:101810000904000000FE0102000904000000FE01AE
:1018200002000904000000FE01020009040000009B
:101830000000FE0102000904000000FE0102000990
:1018400004000000FE0102000904000000FE010285
:10185000000904000000FE0102000904000000FE6F
:101860000102000904000000FE010200090400005A
:10187000000000FE0102000904000000FE01020059
:101880000904000000FE0102000904000000FE013E
:1018900002000904000000FE01020009040000002B
:1018A000FE0102000904000000FE0102000904001C
:1018B00004000000FE0102000904000000FE010215
:1018C000000904000000FE0102000904000000FEFF
:1018D0000102000904000000FE01020009040000EA
:1018E00000FE0102000904000000FE0102000904DC
:1018F0000904000000FE0102000904000000FE01CE
:1019000002000904000000FE0102000904000000BA
:10191000FE0102000904000000FE010200090400AB
:101920000000FE0102000904000000FE010200099F
:10193000000904000000FE0102000904000000FE8E
:101940000102000904000000FE0102000904000079
:1019500000FE0102000904000000FE01020009046B
:10196000000000FE0102000904000000FE01020068
:1019700002000904000000FE01020009040000004A
:10198000FE0102000904000000FE0102000904003B
:101990000000FE0102000904000000FE010200092F
:1019A00004000000FE0102000904000000FE010224
:1019B0000102000904000000FE0102000904000009
:1019C00000FE0102000904000000FE0102000904FB
:1019D000000000FE0102000904000000FE010200F8
:1019E0000904000000FE0102000904000000FE01DD
:1019F000FE0102000904000000FE010200090400CB
:101A00000000FE0102000904000000FE01020009BE
:101A100004000000FE0102000904000000FE0102B3
:101A2000000904000000FE0102000904000000FE9D
:101A300000FE0102000904000000FE010212010084
:101A40000200000008AAAA55550000000000030982
:101A500002120001010080010904000000FE0102E1
:101A600000090212000101008009020000010100CA
:101A700080010904000000FE01020009023000019B
:101A8000010080010904000000FE0102003E210067
:101A9000000000FACEB003AABBCCDD80000000003D
:101AA00046500080000000003DEE70120100020070
:101AB0000000084C05EB02000000000001090220B4
:101AC0000001000080010904000002FF000000077F
:101AD000050202080000070581020800001201004B
:101AE0000200000008AAAAC0DE00000000000109F0
:101AF00002120001010080010904000000FE010241
:101B00000080000000003DEE7880000000003DEE07
:101B100088800000000033E720E883FFF0E863FFDF
:101B2000F8E8A30018386310007C0428004082FF06
:101B3000F438C3F0207CC903A64E800420040000C2
:101B4000000403090412036F00620064006500765C
:101B5000002E00610074000C034D006F00750073CF
:101B60000065000011241FBECFEFD8E0DEBFCDBF5F
:101B700011E0A0E0B1E0EAEBFCE202C005900D92BA
:101B8000A235B107D9F711E0A2E5B1E001C01D927D
:101B9000A23CB107E1F772D40C945B160C940000E0
:101BA000A82FB92F80E090E041E050EA609530E046
:101BB00009C02D9182279795879510F08427952746
:101BC000305EC8F36F5FA8F30895EADF8D939D93AD
:101BD0000895CF93CFB7CF93DF93C3954A9BE9F78F
:101BE0004A9B0BC04A9B09C04A9B07C04A9B05C041
:101BF0004A9B03C04A9B01C08BC06F93C091A50153
:101C0000DD27C455DE4F2F9365E54A9B03C02F9116
:101C10006F91E6CF0F931F934F9320E040E15F93C6
:101C200009B1047102FB27F93F9350E03BE039C052
:101C3000147140642F77012F5F5F1EC0406819B197
:101C400014712F7752501FC0406409B12F7704716F
:101C5000D1F15F5F00C023C0406219B12F771471CA
:101C600091F15F5F00C025C004711027515012F43C
:101C70005D5F0000115027952C3F19B1C8F6147113
:101C80000127015027952C3FC8F64227499309B1F7
:101C9000047110274F73115027952C3FA8F64695D5
:101CA000469519B1147179F00127015027952C3F01
:101CB00098F66B5A60F3315009B1B0F600C011E0EC
:101CC0001CBB002719C03B503195C31BD04011E00D
:101CD0001CBB0881033C09F10B34F9F02091A301EE
:101CE0001981110F1213EDCF4A81441F093651F1AA
:101CF0000D3211F0013E29F70093AA013F915F9147
:101D00004F911F910F912F916F91CCB3C0FD65CF73
:101D1000DF91CF91CFBFCF9118952091AA012223B7
:101D200069F31091A801112391F5343092F13093A9
:101D3000A8012093A4011091A5013BE0311B309331
:101D4000A50127C00091A80101300CF50AE54F70EC
:101D500049F430914E0134FD1DC000934E01CCE892
:101D6000D1E01CC03091970134FD14C0009397015D
:101D7000C8E9D1E013C0052710E000C000000BB98E
:101D80001AC0052710E0221F1DC010E021C04AE53F
:101D900002C032ED432FC4E1D0E032E01AB1146149
:101DA0005A9A0BB11AB954E120E865E320FF0527E0
:101DB0000BB9279517951C3FF0F66695B8F7B1F764
:101DC00020FF05270BB9279517951C3FD0F62795BF
:101DD000179517FF052700001C3F0BB9B0F6299196
:101DE0003A9519F70B7E1091A901110FC651D040F9
:101DF0000BB911F01093A30111E01CBB04601AB1E0
:101E00001B7E402F4B7E54E05A95F1F70BB91AB95F
:101E10004BB974CF2998289880FD299A81FD289A7A
:101E20000895982F80914D01E82FFF27E7FDF09549
:101E3000EB59FE4F8081882309F490830895282F61
:101E4000E82FF0E080914D01992787FD90958E173E
:101E50009F0789F020934D011092A80110924E0126
:101E60008AE580939701EB59FE4F80818093A90109
:101E7000880F8093A30108951F920F920FB60F92BF
:101E800011248F9386EF809385008CE380938400E8
:101E900080916C01882329F080916C01815080939E
:101EA0006C018F910F900FBE0F901F901895209A84
:101EB000219A80E090E0AECF80916E0190916F0109
:101EC000089690936F0180936E018034910514F40D
:101ED0008FEF089582E380936C0183E180935E012C
:101EE00080E00895FC01DC01AA5BBE4F81E08C9389
:101EF000109264011092630141E050E09A010E2EAD
:101F000002C0220F331F0A94E2F780915F01822BF7
:101F100080935F013197EE0FFF1FDF01A65CBE4F7C
:101F200083E093E08D939C93EE5AFE4F5183408360
:101F30000895FC01DC01AA5BBE4F1C921092620165
:101F40001092610141E050E09A0102C0220F331F5C
:101F50008A95E2F780915F01822B80935F01319730
:101F6000EE0FFF1FDF01A65CBE4F80E091E08D9376
:101F70009C93EE5AFE4F518340830895FC01628189
:101F8000468157818381813021F0823009F0D0C0B1
:101F90002AC080914D018330D1F084303CF48130EF
:101FA00081F082308CF4882349F0C2C08530A9F0DA
:101FB000853084F0863009F0BBC012C088E690E01E
:101FC000B0C08CE990E0ADC086EB9FE0AAC08EED7A
:101FD0009FE0A7C08DE39AE1A4C08BEA9AE1A1C07B
:101FE0008DED9AE19EC080914D01833009F450C07F
:101FF00084303CF48130C1F08230DCF5882359F024
:1020000097C0853009F482C085300CF455C0863005
:1020100009F08EC084C08AE790E09093A701809376
:10202000A60129E130E089C0643008F081C0483061
:10203000510549F48EEA90E09093A7018093A601A0
:1020400028E030E008C086EB90E09093A7018093F1
:10205000A60120E03FE0633009F06FC04930510530
:1020600008F46BC085E080935E0184E180936C018D
:1020700064C088EC9FE09093A7018093A60188E05C
:1020800080935E018FE080936C0126E130E055C0C3
:1020900080EF9FE09093A7018093A601613009F043
:1020A0004AC04930510508F446C08BE080935E0178
:1020B00084E180936C013FC0662319F48FE49AE1B8
:1020C00030C0613079F44830510549F481E69AE135
:1020D0009093A7018093A60128E030E02EC089E606
:1020E0009AE11FC0623021F58BE79AE19093A70136
:1020F0008093A6014930510530F080E180935E0164
:1021000084E180936C0120E330E017C08DEB9AE10D
:102110009093A7018093A60120E230E00EC08FEEDD
:102120009AE19093A7018093A60122E130E005C0D7
:1021300020E030E002C02DE43AE0C9010895EF92BA
:10214000FF920F931F93CF93DF938C01EB0180E0FD
:1021500091E0A3D520E137E240E9E42E41E0F42EFE
:1021600005C0C7010197F1F7215030402115310515
:10217000C1F7C8014FDE80E197E2F7013197F1F72F
:102180000197D9F7CE0146DE20E137E2EACF0F937F
:102190001F93DC0180914D01863049F411968C919A
:1021A0008A3A09F0FBC08FE180935E01FCC0853064
:1021B00031F411968C918B3009F0F0C0F4C0882373
:1021C00009F0ECC08C91803AA1F511968C91119791
:1021D000863071F413968C911397893249F483E712
:1021E00091E09093A7018093A60129E030E0DDC043
:1021F00011968C911197882309F0D0C012968D9179
:102200009C911397892B09F0C9C014968D919C91CC
:102210001597892B09F0C2C016968D919C9117973E
:10222000049709F0BBC080E090E064D380E090E0C8
:102230002DC0833A79F511968C911197882309F076
:10224000ADC012968D919C911397892B09F0A6C071
:1022500016968D919C911797049709F09FC014963C
:102260000C91802F8150863008F09DC010E0015005
:102270001040000F111FF801E65CFE4F8081918134
:1022800039D30E5A1E4FF8018081918133D346D342
:102290009C018BC0833209F081C011968C911197FB
:1022A000833009F03FC016968D919C911797892B2A
:1022B000C9F51496EC9114978E2F8150863008F052
:1022C00072C012968D919C9113978430910591F074
:1022D000089709F068C0E63009F065C080915E019A
:1022E000882309F060C082E080935E018FE08093D4
:1022F0006C0159C0F0E081E090E00E2E02C0880F22
:10230000991F0A94E2F720915F01282B20935F0127
:10231000EE0FFF1FE05BFE4F808191818061918312
:10232000808341C011968C9111978130B9F5169632
:102330008D919C911797892B89F514962C91149760
:10234000822F8150863078F512968D919C9113974B
:102350008031910519F0449731F510C030E0F90152
:10236000EE0FFF1FE05BFE4F808191818E7F918396
:102370008083309362012093610115C030E0F90140
:10238000EE0FFF1FE05BFE4F808191818F7E918376
:102390008083309364012093630105C081E090E065
:1023A00062E070E0CCDE20E030E0C9011F910F91C7
:1023B00008958091970184FF1EC080915E01833152
:1023C000D1F480916C018823B1F480916D01803447
:1023D00090F490E08F5F944E68E0B4D280916D01EC
:1023E000885F80936D01803430F084E180935E01DA
:1023F0008FE080936C0108958091970184FF11C054
:1024000080915F01882369F080916001882319F031
:102410006DD21092600180915F015BD28BD21092DD
:102420005F010895559A5D9AE1ECF0E08081886043
:10243000808383E390E09093C5008093C40084B7C9
:10244000877F84BF88E10FB6F89480936000109274
:1024500060000FBE80E090E020E80FB6F894209373
:102460006100809361000FBE83E08093810081E072
:1024700080936F001CDD74D278940895FF920F93BF
:102480001F93D0DF81E090E0C5DC10925E0180E018
:10249000D6DC87E091E001D483E791E063E970E066
:1024A00049E050E0FFD313E004E0F6E0FF2E809116
:1024B0004D01882309F4A0DF80914D01853009F496
:1024C00078DF5BD280915E01823081F480916C0173
:1024D000882361F46EE071E041E0B2D380E090E0E7
:1024E00099DC81E090E0FEDC10935E0180915E015A
:1024F000833091F48091630190916401019761F4BC
:1025000080E060E171E041E09BD381E090E082DC1B
:1025100081E095DC00935E0180915E01853091F44D
:1025200080916C01882371F462E171E041E088D30D
:1025300080E090E06FDC80E082DC82E090E0D2DC42
:10254000F0925E0180915E01863099F48091630182
:1025500090916401029769F480E064E171E041E0E8
:102560006FD381E090E056DC82E069DC87E0809305
:102570005E0180915E01883099F480916C0188231E
:1025800079F466E171E041E05BD380E090E042DC09
:1025900080E055DC83E090E0A5DC89E080935E017B
:1025A00080915E01893099F480916301909164017A
:1025B000039769F480E068E171E041E041D381E094
:1025C00090E028DC83E03BDC8AE080935E01809130
:1025D0005E018B3099F480916C01882379F46AE173
:1025E00071E041E02DD380E090E014DC80E027DC56
:1025F00082E090E09EDC8CE080935E0180915E0141
:102600008C30A1F48091610190916201029771F484
:1026100080E06CE171E041E013D381E090E0FADB0F
:102620008DE080935E018FE080936C0180915E016C
:102630008D3089F480916C01882369F46EE171E03A
:1026400041E0FED280E090E0E5DB84E090E04ADC0F
:102650008EE080935E0180915E018E3099F48091CE
:10266000630190916401049769F480E060E271E095
:1026700041E0E6D281E090E0CDDB84E0E0DB8FE07A
:1026800080935E0180915E018031B1F480916C0194
:10269000882391F462E271E041E0D2D280E090E0E0
:1026A000B9DB80E0CCDB81E08093600185E090E0E5
:1026B00019DC81E180935E0180915E01813199F4A2
:1026C0008091630190916401059769F480E064E270
:1026D00071E041E0B5D281E090E09CDB85E0AFDBCA
:1026E00082E180935E0180915E018431B1F480913A
:1026F0006C01882391F466E271E041E0A1D280E0B0
:1027000090E088DB80E09BDB81E08093600183E0E8
:1027100090E00FDC85E180935E0180915E01853160
:10272000A1F48091610190916201039771F480E0BE
:1027300068E271E041E084D281E090E06BDB86E109
:1027400080935E018DE280936C0180915E01863101
:1027500099F480916C01882379F46AE271E041E098
:102760006FD280E090E056DB80E069DB85E090E0AE
:10277000E0DB87E180935E0180915E018731A1F407
:102780008091610190916201059771F480E06CE2A3
:1027900071E041E055D281E090E03CDB88E180933C
:1027A0005E0184E180936C0180915E01883199F42F
:1027B00080916C01882379F46EE271E041E040D2AF
:1027C00080E090E027DB80E03ADB84E090E0B1DB62
:1027D00089E180935E0180915E018931A1F480914D
:1027E000610190916201049771F480E060E371E00F
:1027F00041E026D281E090E00DDB8AE180935E012A
:1028000084E180936C0180915E018A3199F480911A
:102810006C01882379F462E371E041E011D280E039
:1028200090E0F8DA80E00BDB81E090E082DB8BE186
:1028300080935E0180915E018B31A1F480916101F2
:1028400090916201019771F480E064E371E041E0EE
:10285000F7D181E090E0DEDA8CE180935E0184E1E3
:1028600080936C0180915E018C3199F480916C01B0
:10287000882379F466E371E041E0E2D180E090E002
:10288000C9DA80E0DCDA86E090E02CDB8DE1809331
:102890005E0180915E018D3199F480916301909188
:1028A0006401069769F480E068E371E041E0C8D113
:1028B00081E090E0AFDA86E0C2DA8EE180935E01DB
:1028C00080915E018F3109F0F2CD82E090E0A2DAD2
:1028D000EECD90917001983040F4E92FF0E0EC5784
:1028E000FE4F80839F5F9093700108958BE48093E7
:1028F00098010895282F80917101873070F4E82F96
:10290000F0E0E458FE4F20838F5FE82FF0E0E458BA
:10291000FE4F90838F5F80937101089580917101C4
:10292000109271012CE731E03093A7012093A601AA
:1029300090E0089584E891E06091700146D1109292
:10294000700108951F939C01162F84E891E0B9014E
:10295000412F50E0A7D110937001ECDF1F91089533
:10296000E9E6F0E0808182608083E89A8BE48093DE
:1029700098018AE58093970108951F93CF93DF9381
:102980006091A801635067FDAEC08091A501CCE0C5
:10299000D0E0C81BD109C455DE4F8091A4018D320F
:1029A00009F091C0683009F09CC083EC80938C01E1
:1029B0008AE580934E01109272018881807621F021
:1029C000CE01E5DBAC0167C08A8110929501998147
:1029D000992329F41092960142E050E055C09530B9
:1029E00021F48093A9011DDA4DC09630A9F58B81A1
:1029F000813059F1823049F1833039F58A81882359
:102A000049F481E49BE19093A7018093A60144E0FF
:102A100050E01EC0813049F485E49BE19093A7010A
:102A20008093A60142E150E013C0823049F487E56B
:102A30009BE19093A7018093A6014CE050E008C071
:102A4000833019F440E050E003C0CE0197DAAC01C6
:102A500080E4809372011FC0983029F441E050E077
:102A60002BEA31E013C0993019F48093AB010AC00E
:102A70009A3019F441E050E007C09B3019F48BE420
:102A80008093980140E050E025E931E03093A701C0
:102A90002093A6010DC02FEF4F3F520749F48881C4
:102AA00087FF02C04E815F8180E88093720106C07B
:102AB0008E819F818417950708F4AC0150935001D3
:102AC00040934F010EC0CE01F7D98F3F21F48EE124
:102AD00080934E0106C0882321F01092500110927D
:102AE0004F011092A80180914E0184FF60C0809137
:102AF0004F0190915001EFEF8F3F9E0709F457C0AF
:102B00009C018930910510F028E030E0821B930B86
:102B10009093500180934F0180918C0198E8892710
:102B200080938C01122F222391F16091A601709164
:102B3000A7018091720186FF13C09B01CDE8D1E00F
:102B40001150412F50E01F5FDA01A257BE4FF9012B
:102B5000849189932F5F3F4FCA17DB07C1F70FC0DE
:102B6000DB01EDE8F1E01150412F50E01F5F9A01C9
:102B700022573E4F8D918193E217F307D9F7CA018F
:102B80000196860F971F9093A7018093A6018DE869
:102B900091E0612F1AD8612F6C5F6C3031F08FEFAC
:102BA0009FEF9093500180934F0160934E0194E109
:102BB00089B1847131F49150D9F71092A901109222
:102BC000A301DF91CF911F9108951F93DC01162F70
:102BD0008091970184FF07C08091980198E8892728
:102BE0008093980103C08AE580939701912FE9E9CA
:102BF000F1E08D9181939150E1F789E991E0612FA6
:102C00000E94E50D1C5F109397011F910895982F66
:102C10008091C00085FFFCCF9093C60008958F700F
:102C20008A3008F0895D805D08951F93182F829582
:102C30008F70F5DFECDF812FF2DFE9DF1F91089560
:102C40001F93CF93DF93EB01142FEFDF8AE3DFDFD6
:102C500005C080E2DCDF8991E8DF11501123C9F75C
:102C60008DE0D5DF8AE0D3DFDF91CF911F9108950A
:102C70001F93CF93DF93EC01FC0101900020E9F753
:102C800031971E2F181B03C08991C1DF11501123EA
:102C9000D9F7DF91CF911F910895EADF8DE0B7DF7B
:102CA0008AE0B5CFFB01DC0102C005900D924150D6
:0A2CB0005040D8F70895F894FFCFC4
:102CBA0050616E6963210052656164792E000100DA
:102CCA0002000300040005000600070008000900CE
:102CDA00100011001200130014001500160017004E
:102CEA001800190020002100220000010001000143
:102CFA0000010001000101000000000000FF5AFF6E
:022D0A00FF00C8
:00000001FF
